:100000000C94DE000C94F02E0C94F02E0C94F02E38
:100010000C94F02E0C94F02E0C94A02E0C94B52A77
:100020000C94F02E0C94F02E0C94F02E0C94F02ED8
:100030000C94F02E0C94F02E0C94F02E0C94F02EC8
:100040000C94F02E0C94F02E0C94F02E0C94F02EB8
:100050000C94F02E0C94F02E0C94AF2E0C94F02EE9
:100060000C9460250C94F02E0C94F02E0C94F02E31
:100070000C94F02E0C94AA2E0C94F02E0C94F02ECE
:100080000C94F02E0C94F02E0C94B92E0C94832A20
:100090000C94F02E0C94FD1F0C94F02E0C94F02E6A
:1000A0000C94F02E0C94F02E0C94F02E0C94F02E58
:1000B0000C94A52E0C94B42E0C94F02E0C94F02ECF
:1000C0000C94F02E0C94F02E0C94F02E0C94F02E38
:1000D0000C94F02E0C94F02E0C94F02E0C94F02E28
:1000E0000C94F02E0C94F02EA818341934193419ED
:1000F00034193419341934190F18151834193419DE
:10010000341934193419E8183419341934193419D4
:100110003419341934193419341934193419341977
:100120003419341934193419181934193419341983
:100130003419341934193419341934193419341957
:1001400034193419341921190B1940004AEE804A28
:10015000EE4B22005DEE4B224BC6804BC64BF600A9
:100160005E224BF64C1D804C1D4C2D005E524C2DDA
:100170004C4F804C4F4C56005E624C564C5C804C51
:100180005C4C62005E694C624CA6804CA64CAA0096
:100190005E6F4CAA4CDE804CDE4CE0005E734CE09F
:1001A0004CE2804CE24CE4005E754CE44CEC804C3C
:1001B000EC4CF0005E774CF04CF880008091011020
:1001C0008F7C806080688093011011241FBECFEF68
:1001D000CDBFDFE7DEBFEAE4F1E041E019C0B7914F
:1001E000A79137912791079107FD0EC097918791AD
:1001F000EF01F92FE82F0BBF07900D92A217B3075D
:10020000D9F7FE011BBE04C01D92A217B307E1F788
:10021000EB3BF40721F70E9438010C940B2EF89465
:02022000FFCF0E
:100222004C2C25642C25642C252E32662C252E324E
:10023200662C252E32662C252E32662C252E326611
:100242002C252E32662C252E32662C252E32662C3B
:10025200252E32662C25642C252E32662C25642C04
:0D02620025642C256C752C25640A002C00E9
:10027000CF93DF9300D000D0CDB7DEB7F8940E94C3
:10028000502D0E94962E60E074E883E090E00E947A
:10029000152BE0E6F4E08089887F808B808984607C
:1002A000808B8089877F808B0E94D72E0E94F52DBE
:1002B0000E94DB2E0E94AB2D0E94B82D0E948A2E38
:1002C0007894E0E2F4E0818188608183A0E8B4E082
:1002D00011968C911197826011968C9311971596B7
:1002E0008C911597826015968C93858188608583A3
:1002F00087E196E00197F1F700C0000086818860F1
:10030000868390EF9A95F1F785818860858368E010
:100310008AE39CE40E94CF2768E08DE29CE40E947F
:10032000CF2780E094E10E94E72E182F81E094E12E
:100330000E94E72E212F30E0382B20938E4B3093F4
:100340008F4B82E094E10E94E72E182F83E094E126
:100350000E94E72E212F30E0382B20938C4B3093D6
:100360008D4B1092964B1092974B1092944B10928B
:10037000954B3AC00E94162E00916A4C10916B4C1E
:1003800020916C4C30916D4CDC01CB01801B910BAA
:10039000A20BB30BC397A105B10530F10E94162E35
:1003A00060936A4C70936B4C80936C4C90936D4C43
:1003B0008091F34C811113C081E50E943A2E86E7AB
:1003C0000E943A2E80E30E943A2E8EE20E943A2E3C
:1003D00081E30E943A2EA1E0A093F34C05C083E490
:1003E0000E943A2E1092F34C0E94F917882311F2C2
:1003F00081E090E00E94762620E030E045E753E47B
:1004000060E070E085E793EC0E9483206091884B68
:100410007091894B80918A4B90918B4B0E94C225A1
:1004200081E090E00E94CE2620E030E048EC52E4EB
:1004300060E070E0CB010E9407216091584C709100
:10044000594C80915A4C90915B4C0E941C2680E044
:1004500090E00E94C32E80918C4B90918D4B0B9716
:1004600018F083E08093834B0F2EFAE08F2EFCE48C
:100470009F2EF02D0F2EF2E82F2EFBE43F2EF02DB5
:100480000E94162E2B013C01F40187819085A185E5
:10049000B2850196A11DB11D87839087A187B28780
:1004A000D10114966D917C91159780E090E00E94A7
:1004B000F9280CE010E024ED3CE442E55BE40E9406
:1004C0008B21F101668377838087918766857785A5
:1004D00080E090E00E94F92822ED3CE442E25BE4F7
:1004E0000E948B219B01AC010E945B2E0E94E62A98
:1004F000D10150966D937C935197E6E5FCE46081C1
:10050000718180E090E00E94F92805E010E020ED84
:100510003CE446EF5BE40E948B212FE135E84BE998
:100520005AE30E94E32E6093584C7093594C809389
:100530005A4C90935B4CF3E4FF9328EC2F931F925B
:100540001F920F2EA12CB12CF8E4CF2EF2E4DF2E57
:10055000F02DE12CF12C00E910E420E030E040E047
:100560005FE30E94FD2420E030E048EE52E40E9468
:100570005A2E6B017C016093584C7093594C8093B8
:100580005A4C90935B4C6091C24B7091C34B80E08E
:1005900090E00E94F9289B01AC010F900F900F9002
:1005A0000F90C701B6010E94CD2E181624F431E039
:1005B0003093C44B04C08091C44B813039F5D101D4
:1005C00056961D921D921D921C9259970E94162EAE
:1005D0000091664C1091674C2091684C3091694CA9
:1005E000DC01CB01801B910BA20BB30B893C910565
:1005F000A105B10508F4F5C08091494C90914A4C91
:100600000A9708F0EEC01092C44BEBC08091C54B26
:1006100081114BC0E7E4FCE400811181C701B60100
:100620000E94612EA8018AE39CE40E94410FBC0154
:1006300080E090E00E94F92869837A838B839C8311
:10064000D10190966D937D938D939C9393971A9679
:100650006D917C911B9780E090E00E94F9285B01EE
:100660006C01F1016485758580E090E00E94F928B5
:100670009F938F937F936F93E12CF12C08EC12E4FE
:1006800020E030E0A90169817A818B819C810E9400
:10069000FD24D10156966D937D938D939C9359972C
:1006A0000F900F900F900F9092C0813009F08CC086
:1006B00080914D4C8232E9F480914E4C8C30C9F0DF
:1006C000E7E4FCE4408151816091494C70914A4CCF
:1006D0008DE29CE40E94410FBC0180E090E00E940A
:1006E000F928D10190966D937D938D939C93939768
:1006F00018C0E7E4FCE4408151816091494C70915D
:100700004A4C8AE39CE40E94410FBC0180E090E0E7
:100710000E94F928D10190966D937D938D939C93BF
:100720009397F10120A131A142A153A16091584CAE
:100730007091594C80915A4C90915B4C0F2EA12C8A
:10074000B12CF6E9CF2EF3E4DF2EF02DE12CF12CC5
:1007500087010E946F1469837A838B839C83D10104
:1007600094966D937D938D939C9397971A966D9124
:100770007C911B9780E090E00E94F9285B016C015E
:10078000F1016485758580E090E00E94F9289F93CF
:100790008F937F936F93E12CF12C08EC12E420E00F
:1007A00030E0A90169817A818B819C810E94FD24BE
:1007B000D10156966D937D938D939C9359970F908D
:1007C0000F900F900F9003C024E0F10121830E944D
:1007D000162E6093664C7093674C8093684C909390
:1007E000694CD10111968C91823019F40E94791ACA
:1007F00046C0982F9D7F9130D1F521E0F1012183F2
:10080000648575856C5D710980E090E00E94F9282F
:100810005B016C01D1011A966D917C911B976C590B
:100820007F4F80E090E00E94F9287B018C01F1016C
:1008300026893789408D518D6681778180859185A4
:10084000F2E4FF93A8ECAF931F921F920E94501204
:10085000F101628F738F848F958F0E94612ECB017F
:100860000E94502A0F900F900F900F9008C0843074
:1008700031F480E090E00E94502A0E94BE2ED40104
:100880006D917C9180E090E00E94F9282BE43CE39C
:1008900040EA5BE30E94E32E6B017C01F40162837A
:1008A00073838483958320E030E040E051E40E942C
:1008B000C82E88231CF41092F24C29C020E030E0AE
:1008C00040E251E4C701B6010E94CD2E1816FCF497
:1008D0008091F24C81111BC0809125048860809327
:1008E000250487E196E00197F1F700C000008091B0
:1008F000260488608093260490EA9A95F1F7809107
:100900002504886080932504A1E0A093F24CF101B6
:1009100080899189843C9940E0F0D10111968C91B5
:100920008230B9F00E94162EF401078510892189C2
:100930003289DC01CB01801B910BA20BB30B853FED
:100940009140A105B10570F0E4E0D1011196EC935E
:1009500009C00E94162ED4011F966D937D938D932E
:100960009C9352970E94F917E090B24BF090B34BD2
:100970000091B44B1091B54B2091AE4B3091AF4BE1
:100980004091B04B5091B14BEAEAFBE46081718138
:10099000828193810E94BD1CE090BE4BF090BF4BC2
:1009A0000091C04B1091C14B2091BA4B3091BB4B81
:1009B0004091BC4B5091BD4B6091B64B7091B74B81
:1009C0008091B84B9091B94B0E94721D8091624CFE
:1009D0009091634CA091644CB091654CA30192013D
:1009E000281B390B4A0B5B0BDA01C901893E934086
:1009F000A105B1050CF444CD0E94162E6093624C03
:100A00007093634C8093644C9093654CD40116961C
:100A10008C9116978F5F16968C93169717968D91DB
:100A20009D910D90BC91A02DF40183879487A5879B
:0C0A3000B687178210861186128622CD30
:100A3C00AAE9B0E0E4E2F5E00C947B2C6C017A01BD
:100A4C00C756DF4F68837983C959D040A12CB12C8C
:100A5C0066246A94762C90E8492E512C25E2222E9D
:100A6C00C756DF4F68817981C959D040FB0180811D
:100A7C00882309F471C3CF57DF4F18821982C158EC
:100A8C00D040CD57DF4F68827982C358D040CB57C6
:100A9C00DF4F18821982C558D04081E090E08C0F4E
:100AAC009D1FC957DF4F88839983C758D040C757BC
:100ABC00DF4F48825982C958D040FB0100E010E05A
:100ACC008191811116C001151105C1F0A801C60153
:100ADC000E94242CC756DF4F88819981C959D04078
:100AEC00800F911FC756DF4F88839983C959D04017
:100AFC0005C0853241F30F5F1F4FE2CFC756DF4F62
:100B0C00E881F981C959D0408081853209F012C33E
:100B1C004F019FEF891A990AC756DF4F8882998235
:100B2C00C959D040C756DF4F88819981C959D040E7
:100B3C00DC012C912B3241F4CF57DF4F28813981C6
:100B4C00C158D04024600BC02C32BCF02D3249F57A
:100B5C00CF57DF4F28813981C158D0402160CF5702
:100B6C00DF4F28833983C158D0400196C756DF4FD9
:100B7C0088839983C959D040D5CF203241F4CF57BF
:100B8C00DF4F28813981C158D0402860E8CF23320B
:100B9C0091F4CF57DF4F28813981C158D040206163
:100BAC00DECF203341F4CF57DF4F28813981C15834
:100BBC00D0402260D4CF2A3289F50196C756DF4F38
:100BCC0088839983C959D040D701ED91FC91119735
:100BDC00CF0102968D939C9380819181CB57DF4FEF
:100BEC0088839983C558D04097FF35C0CF57DF4FC6
:100BFC0028813981C158D040B1E02B27CF57DF4F26
:100C0C0028833983C158D040919581959109CB5750
:100C1C00DF4F88839983C558D0401DC00E94AC29F2
:100C2C00CB57DF4F88839983C558D040C756DF4FC9
:100C3C00E881F981C959D0408081082E000C990BAC
:100C4C00C0970A9740F43196C756DF4FE883F98373
:100C5C00C959D040EBCFCF57DF4F88819981C1580C
:100C6C00D04080FF07C08D7FCF57DF4F888399839B
:100C7C00C158D040C756DF4FE881F981C959D040DF
:100C8C0080818E3209F046C0CD57DF4F1882198211
:100C9C00C358D040CF010196C756DF4F8883998344
:100CAC00C959D04021812A32C1F43296C756DF4F40
:100CBC00E883F983C959D040D701ED91FC91119784
:100CCC00CF0102968D939C9380819181CD57DF4FFC
:100CDC0088839983C358D0401DC00E94AC29CD573E
:100CEC00DF4F88839983C358D040C756DF4FE881C4
:100CFC00F981C959D0408081082E000C990BC097FE
:100D0C000A9740F43196C756DF4FE883F983C959E7
:100D1C00D040EBCFCE0187569F4F0E94A72B382E89
:100D2C00C756DF4FE881F981C959D0408081082E20
:100D3C00000C990B0E94522E8936910509F456C06D
:100D4C00B4F48336910509F46BC144F485329105F2
:100D5C0009F4A2C18136910529F1B4C184369105FB
:100D6C0009F444C0883691050CF436C1ABC1803708
:100D7C00910509F4C4C04CF48E36910509F420C1D8
:100D8C008F36910509F47AC09DC18537910509F418
:100D9C0051C08837910509F495C08337910509F046
:100DAC0091C15DC1632D70E0A701CE0185579F4FA6
:100DBC000E94C72B892B09F4B0C1C756DF4FE881BD
:100DCC00F981C959D040CF010196C756DF4F8883AE
:100DDC009983C959D0402081AE0145575F4FBE0160
:100DEC006F577F4FC6010E94ED2E94C1632D70E0AA
:100DFC00970141E050E0CE0185579F4F0E94041CA3
:100E0C00892B09F48AC1C756DF4F88819981C9594A
:100E1C00D0400196C756DF4F88839983C959D0407B
:100E2C00AE0145575F4FBE016F577F4FC6010E9401
:100E3C00451B70C1632D70E0970140E050E0CE017E
:100E4C0085579F4F0E94041C892B09F466C1C75615
:100E5C00DF4F88819981C959D0400196C756DF4F21
:100E6C0088839983C959D040AE0145575F4FBE0165
:100E7C006F577F4FC6010E9426274CC1632D70E02F
:100E8C00970140E050E0CE0185579F4F0E94041C13
:100E9C00892B09F442C1C756DF4F88819981C95902
:100EAC00D0400196C756DF4F88839983C959D040EB
:100EBC00AE0145575F4FBE016F577F4FC6010E9471
:100ECC002D2428C1632D70E0970140E050E0CE0145
:100EDC0085579F4F0E94041C892B09F41EC1C756CD
:100EEC00DF4FE881F981C959D040CF010196C7562F
:100EFC00DF4F88839983C959D040208157C097010F
:100F0C0040E050E060EF70E0CE0185579F4F0E94AB
:100F1C00041C892B09F401C1C756DF4F88819981C4
:100F2C00C959D0400196C756DF4F88839983C95958
:100F3C00D04086E0ECE5FCE4DE01AD56BF4F0190FD
:100F4C000D928A95E1F7C557DF4F2881CB58D040D9
:100F5C00C457DF4F3881CC58D040C357DF4F48813E
:100F6C00CD58D040C257DF4F5881CE58D040C157D2
:100F7C00DF4F6881CF58D040C057DF4F7881C059C0
:100F8C00D040CF56DF4F8881C159D040CE56DF4F6D
:100F9C009881C259D040A0E00E94DD2D31F420E0B0
:100FAC0030E0AE014D565F4FAFC028E7AE0145575C
:100FBC005F4FBE016F577F4FC6010E943919AAC0FF
:100FCC00632D70E09701A501400F511FCE0185578D
:100FDC009F4F0E945723A1C0632D70E0A701CE0143
:100FEC0085579F4F0E94C72B892B09F496C0C75673
:100FFC00DF4FE881F981C959D040CF010196C7561E
:10100C00DF4F88839983C959D0402081AE01455761
:10101C005F4FBE016F577F4FC6010E94010C7AC013
:10102C00B0E83B127AC0C756DF4F88819981C95905
:10103C00D0400196C756DF4F88839983C959D04059
:10104C00D701ED91FC911197CF0102968D939C9352
:10105C008081C557DF4F8883CB58D04050C0B0E853
:10106C003B125BC0C756DF4F88819981C959D0406C
:10107C000196C756DF4F88839983C959D040D70151
:10108C00ED91FC911197CF0102968D939C93408129
:10109C00518120E030E038C0B0E83B123EC0C7566A
:1010AC00DF4F88819981C959D0400196C756DF4FCF
:1010BC0088839983C959D040C557DF4F2882CB58B4
:1010CC00D0401DC0C557DF4F2882CB58D040C756E3
:1010DC00DF4F88829982C959D040CF57DF4F188291
:1010EC001982C158D040CB57DF4F18821982C5588E
:1010FC00D040CD57DF4F68827982C358D04021E071
:10110C0030E0AE0145575F4FBE016F577F4FC601B0
:10111C000E941C2A800F911F0EC0C756DF4F88817A
:10112C009981C959D0400196C756DF4F888399835E
:10113C00C959D040C8018501080F191F0A151B0594
:10114C004CF48FE490E080930040909301408FEF3B
:10115C009FEF03C0580184CCC501C656DF4FE2E1B6
:04116C000C94AC2C07
:10117000A0E0B0E0EEEBF8E00C947B2CDB011097E4
:1011800021F08C9311969C9311979C01F901808119
:101190002F5F3F4F082E000C990B80329105B1F361
:1011A000AC01495051094530510580F38D3291050C
:1011B00021F4F9015524539404C08B9709F4F901E3
:1011C000512C80E0282F082E000C330BEF01C20FAA
:1011D000D31F9881992371F0E901CA53D44B4881F8
:1011E000941302C08F5FEECFE901C153D44B288125
:1011F0009217C1F3833010F430E015C0109709F452
:10120000DEC2883009F083E0E80FF11D87FDFA9512
:10121000ED93FC93D4C2AC014852544BEA0148818F
:1012200024130DC03F5F832F032E000C990BBF01C9
:10123000680F791FEB0128812111EDCF06C0845280
:10124000944BEC018881281769F3333011F090E05A
:101250001AC0109709F4BAC2283291F420E0822F04
:10126000022E000C990BFB01E80FF91F308133238C
:1012700039F0393211F02F5FF2CF0196680F791FE4
:101280006D937C93A3C2092F092E000C110BEF0163
:10129000C00FD11F8881803311F49F5FF4CF3D01CF
:1012A000992319F08F7D883541F060E070E0CB0123
:1012B000E12CF12CC0E0D0E05FC10F5F1F4F0E0F9B
:1012C0001F1F80E0F801E80FF11D87FDFA9590815E
:1012D000903311F48F5FF6CF812C912C5401E12CC7
:1012E000F12CC0E0D0E06CE1262E312C4E2C6801B0
:1012F000CE0CD11CE7FCDA94F6018081982F9F7DFB
:10130000903509F48CC08E3251F4F52DF0615F2ECA
:10131000442443944E0C57E0252E312C3EC0082E19
:10132000000C990B0E94F12C892B21F460E070E0F5
:10133000CB0162C2D6018C91282F082E000C330BF2
:10134000A901405351094A30510510F4805304C09B
:10135000C9010E94312E8753B8E0EB16F1048CF4DA
:1013600090E0A0E0B0E091012C1B3D0B04C0880F81
:10137000991FAA1FBB1F2A95D2F7882A992AAA2A41
:10138000BB2AEFEFEE1AFE0A2496B0CF803389F421
:10139000E114F10471F4249743946801C40CD11C46
:1013A00047FCDA94D6018C91982F9F7D903571F788
:1013B00036C0082E000C990B0E94F12C892B61F38A
:1013C000D6014C91842F042E000C990B9C012053C4
:1013D00031092A30310518F480ED840F03C00E94D2
:1013E000312E8753B8E0EB16F104ACF490E0A0E0A6
:1013F000B0E091012E193F09220F331F220F331F36
:1014000004C0880F991FAA1FBB1F2A95D2F7882AEC
:10141000992AAA2ABB2AEFEFEE1AFE0ABDCFF801DD
:10142000E40DF11D47FCFA9580818F7D803509F030
:101430007DCF81E0840DF801E80FF11D87FDFA955D
:1014400090819B3229F09D3229F4B52DB8605B2E36
:1014500082E0840D080F111D87FD1A9560E0F801E8
:10146000E60FF11D67FDFA958081803311F46F5FFF
:10147000F6CF40E050E07AE0F801E60FF11D67FD9D
:10148000FA958081082E000C990B9C01205331099C
:101490002A30310568F4662331F0FA017E9FA001FD
:1014A0007F9F500D1124C097480F591F6F5FE4CFE5
:1014B000662309F43BCF53FE03C051954195510972
:1014C0006114710419F0D301ED93FC93811491041C
:1014D000A104B10409F42ACFE0E8E81520F4FFEFF5
:1014E0009F1AAF0ABF0AC40FD51FB7FC06C0880CED
:1014F000991CAA1CBB1C2197F8CFC3382FEFD20729
:1015000094F4C2383FEFD30759F081149104A10439
:10151000B10431F02196B694A79497948794F1CFB3
:10152000C1E8DFEF0AC02197C038D1050CF45FC1D4
:10153000812C912C5401C0E8D0E0C158DF4FAE019E
:10154000DD0F660B770BF7E1440F551F661F771F02
:10155000FA95D1F7A9E0B694A79497948794AA95A1
:10156000D1F7842A952AA62AB72A36C11E3251F409
:10157000452D4061542E31969F011081A52DA071FB
:1015800054FEF4CF412F012E000C550B405351094E
:101590004A30510500F5B52DB2605B2E29E0E21608
:1015A000F104A9F0A11121973FEFE31AF30AAAE091
:1015B000B0E09B01AC010E94002E1053DC01CB0176
:1015C000810F911DA11DB11DBC01CD01D4CFA11171
:1015D000D2CF2196D0CF1F7D153409F053C0218181
:1015E0002D3221F4452D4860542E04C02B3211F0C9
:1015F000319601C03296DF0121912033E1F3422F71
:10160000022E000C550B405351094A30510588F504
:1016100050ED520F052F10E011964C911197242F89
:10162000042E000C330B205331092A30310510F001
:101630009F0122C09D012E5F3F4F4053042F10E0B9
:10164000EAE05E9F000D111D112412964C91E42FCB
:10165000042E000CFF0BF0973A9770F45AE0509F5D
:10166000F001519FF00D112440538F01040F111D03
:1016700003C09D0100E010E053FE06C011950195E6
:10168000110902C000E010E06114710429F051FE5C
:1016900003C0D3012D933C930E94F9284B015C01B8
:1016A00020E030E0A9010E94C82E882309F43ECE34
:1016B000CE01800F911FC52DC17097FF3DC0919540
:1016C000819591098A309105DCF06AE070E00E9412
:1016D000052D182FD92F660F771F660F771FFB0177
:1016E000EE5EF44B2081318142815381C501B4010A
:1016F0000E94DF2E4B015C01812F9D2F009789F006
:10170000880F991F880F991FFC01E251F54B20812A
:10171000318142815381C501B4010E94DF2E4B010A
:101720005C0120E030E040E850E0C501B4010E94D7
:10173000C82E87FF51C03CC0009709F44DC08A30C5
:101740009105DCF06AE070E00E94052D182FD92F7A
:10175000660F771F660F771FFB01EE5EF44B20814B
:10176000318142815381C501B4010E94E32E4B01B6
:101770005C01812F9D2F009789F0880F991F880F9A
:10178000991FFC01E251F54B208131814281538147
:10179000C501B4010E94E32E4B015C012FEF3FEF26
:1017A0004FE75FE7C501B4010E94CD2E1816A4F4DF
:1017B000CC23C1F060E070E080E890E81DC0812C8F
:1017C000912C20E8A22E2FE7B22E06C0812C912C5E
:1017D00090ECA92E9FE7B92EC501B40150FE0CC0B4
:1017E00090580AC060E070E080E890E005C0880C86
:1017F000991CAA1CBB1CA1CECDB7DEB7E2E10C94AC
:02180000AC2C0E
:10180200A6E2B0E0E7E0FCE00C947B2C8E8F9F8F89
:10181200688F798F122FFB010190F081E02DE9870B
:10182200FA87FB01C280D380248135812B8B3C8BCC
:101832008085918588A399A326803780FA018080CC
:101842009180A280B38020E030E0A901C501B401FB
:101852000E94C82E87FF06C0B7FAB094B7F8B094BA
:101862008DE204C0598552FFF0C28BE2F101808300
:101872002B893C89215031092F83388741E050E080
:10188200498B5A8B06C08B899C898F839887198ACA
:101892001A8AD501C401BF770097E0E8AE07EFE7E7
:1018A200BE07B1F4212F110F330B2154310989895D
:1018B2009A89820D931D2A31310518F46DE17CE479
:1018C20002C061E27CE40E944A2E81E29CE4ADC245
:1018D2000197A048BF47B0F0212F110F330B2154BD
:1018E200310989899A89820D931D2A31310518F4AB
:1018F20065E27CE402C069E27CE40E944A2E89E24D
:101902009CE493C220E030E0A901C501B4010E9429
:10191200C82E1B821C82882309F46CC020E82D8308
:101922003FE33E8319821A8220E030E040E251E434
:101932006B817C818D819E810E94E32EF62E072F82
:101942008D879B87A50194010E94CD2E18166CF0FD
:1019520049815A814F5F5F4F49835A83FB820C83CF
:101962005D855D838B858E83DFCF1B861C862B81F5
:101972003C814D815E81C501B4010E94C82E87FF62
:101982003FC0E981FA81E43DFE4F04F54B855C8559
:10199200452BE1F420E030E040E85AE5C501B4010E
:1019A2000E94E32E4B015C0120E030E040E85AE562
:1019B2006B817C818D819E810E94E32E6B837C836F
:1019C2008D839E8381E090E08B879C8720E030E0CE
:1019D20040E251E46B817C818D819E810E94DF2EE9
:1019E2006B837C838D839E83E981FA813197E983BE
:1019F200FA83BDCFF0E8FD832FE32E8319821A828A
:101A0200412F110F550B4AA35BA3CA010E94522E0C
:101A12008B8FD7FC03C0CDA2DEA204C086E090E08B
:101A22008DA39EA39B8D973641F4CD2809F012C257
:101A3200E1E0F0E0EDA3FEA30DC28B8D8D8B06C01D
:101A420029813A8137FF19C296E69D8BEDA1FEA14D
:101A52003196EDA3FEA3FD89F636B9F429813A81C8
:101A620037FF08C01B821C8230E83D834FE34E8360
:101A720019821A825B8D573641F08DA19EA1E981B0
:101A8200FA818E0F9F1F8DA39EA3FB81FB872C8162
:101A92002D873D813E8B4E814A8F750164011C8EDC
:101AA2001D8EEC8DFD8D2DA13EA1E217F307B9F13C
:101AB2002B853D854E895A8DC701B6010E94DF2EC6
:101AC2000E946A1F2B013C010E94612E6CA38701B8
:101AD200760117FB109517F910952B853D854E89D8
:101AE2005A8DC301B2010E94CC1E6B017C01F7FA30
:101AF200F094F7F8F09420E030E040E251E46B8596
:101B02007D858E899A8D0E94DF2E6B877D878E8BD5
:101B12009A8F8C8D9D8D01968C8F9D8FC2CF20E0E8
:101B220030E040EA50E46B857D858E899A8D0E9473
:101B3200E32E2B013C019B01AC01C701B6010E94BF
:101B4200C82E87FD0BC0A3019201C701B6010E94F6
:101B5200C82E811106C03CA130FD03C0412C512C7E
:101B62003201A3019201C501B4010E945B2E4B0117
:101B72005C014D89453619F069807A8002C0612C7A
:101B8200712C23018DA19EA1481A590AC988DA88AD
:101B920000E010E01B861C86E985FA85E071FF27CC
:101BA200EE8BFF8B6414750431F4EB85FC85EF2B0F
:101BB20009F496C0A1C0CC8EDD8EE88DF98D8085AA
:101BC20091850597C816D90680F72B813C814D81F6
:101BD2005E81C501B4010E94DF2E0E946A1F6D87DB
:101BE2007E878F87988B0E94612ECB012E893F8939
:101BF200232B69F4892B59F43B8D373641F477FE58
:101C020006C0A8014F5F5F4F4C8F5D8F3FC08B8531
:101C12009C85892BA9F477FE13C09FEFC91AD90AB4
:101C2200EC8DFD8DE20DF31D2EE220834F81588550
:101C3200415051094F83588781E090E08B879C8700
:101C4200F101EC0DFD1D0C8F1D8F4C8D5D8D452B13
:101C520049F090E391932C8D3D8D215031092C8FC9
:101C62003D8FF3CFC8018C0D9D1D2F813885201B20
:101C7200310B6C015FEFC51AD50AF101E80FF91FAC
:101C8200605D6083C90101978F8398878501740124
:101C920017FB109517F910952B813C814D815E81C0
:101CA2006D857E858F8598890E94CC1E4B015C01D3
:101CB200B7FAB094B7F8B09420E030E040E251E4D3
:101CC2006B817C818D819E810E94DF2E6B837C8360
:101CD2008D839E8391E0691A71080C8D1D8D62CFF0
:101CE200F985F4FF09C0F101EC0DFD1D8EE2808340
:101CF20096012F5F3F4F6901A1014C0D5D1D4B877E
:101D02005C87FA011082FD89F53609F061C0E8A10D
:101D1200F9A1E20DF31D3197108229813A8137FF33
:101D220008C031952195310929833A8301E010E0F9
:101D320002C000E010E0E8A1F9A13197E20DF31D25
:101D420022E030E08AE0E82EF12CCF0182199309DB
:101D520049815A81452B91F089819A81B7010E946C
:101D6200052D805D829369837A83215031094F81E9
:101D72005885415051094F835887E7CF12161306F1
:101D82005CF3FC013197E20DF31D012B11F42BE200
:101D920001C02DE220830297B101680F791F2AA1A9
:101DA2003BA1215431092A31310510F025E601C049
:101DB20025E4FB0120832F813885225031092F83AE
:101DC2003887C816D90624F48B859C850E944A2E32
:101DD200398531FF29C030FD27C04F81588514163F
:101DE200150614F5C1010E948F2D820D931D9C01D1
:101DF2002219330949895A89241735074CF0FC0105
:101E02002081EF81F885E80FF91F20830197EFCF3A
:101E12004F81588560E370E089899A89820D931D0C
:101E22000E94282E1B8A1C8AC1010E948F2D0985BF
:101E32001A852B893C89AC01B1018E8D9F8D0E9440
:101E42007D27A696E2E10C94AC2C598553FF1BCD5D
:101E520080E20CCD89819A818C3F9F4F5CF0298171
:101E62003A814DA15EA1241735070CF4E9CD55E660
:101E72005D8B0BCEF5E6FD8B08CE36E63D8B05CEAF
:101E82002F923F924F925F926F927F928F929F9288
:101E9200AF92BF92CF92DF92EF92FF920F931F9376
:101EA200CF93DF93CDB7DEB72697CDBFDEBF6C01F0
:101EB200DC011596ED90FC901697F7013081218197
:101EC20011961C91E12FF0E0E150F048EE0FFF1F58
:101ED200EE0DFF1D80819181481759070CF4CA014C
:101EE200432F522F481759070CF4AC01D60119960B
:101EF200BC90AB2DB0E0AA0FBB1FFD01EE0DFF1D84
:101F020020813181241735077CF0F6019285E92F73
:101F1200F0E0EE0FFF1FEE0DFF1D0190F081E02DAE
:101F2200E417F5070CF4B9C08B2D90E00196212F30
:101F320030E0821793078CF5FD01EE0DFF1D8281C3
:101F42009381841795074CF1F6018285E82FF0E022
:101F52003196EE0FFF1FEE0DFF1D208131812417F8
:101F62003507DCF4B394D6011996BC92199791E027
:101F7200980F1A969C93EB2DF0E0EE0FFF1FEE0DDB
:101F8200FF1D20813181E92FF0E0EE0FFF1FD70105
:101F9200AE0FBF1FED91FC9180C0F60182858823B0
:101FA20081F1AE0DBF1D12972D913C91241735077B
:101FB20044F1E82FF0E0E150F048EE0FFF1FEE0D84
:101FC200FF1D2081318124173507DCF4BA94D60134
:101FD2001996BC9219979FEF980F1A969C93EB2D26
:101FE200F0E0EE0FFF1FEE0DFF1D20813181E92F82
:101FF200F0E0EE0FFF1FD701AE0FBF1FED91FC9176
:102002004CC09FEF910F292F30E0F901EE0FFF1F17
:10201200EE0DFF1D0190F081E02D4E175F0739F0A4
:1020220091110EC004C091110BC001C0FA01D6017A
:1020320019969C9319971A969C93B92E9F012DC0BD
:10204200E417F507DCF0D901A150B048AA0FBB1F75
:102052008D010E0D1F1DD8010D911C91041715073E
:102062006CF4D60119969C9319978FEF890F1A96E3
:102072008C93B92E982F9F01F8010FC09150292FF0
:1020820030E0F901EE0FFF1FEE0DFF1D0190F08110
:10209200E02DE417F50739F6C9CFD60117966D90F2
:1020A2007C90189712969C90092D10E001501048D0
:1020B200000F111F060D171DD801FC9011968C916F
:1020C200D3010D911C91601771070CF48B014F2CF9
:1020D200582E401651060CF42801D6011B96AC90DE
:1020E2006A2D70E0660F771F8301060F171FD80154
:1020F2000D911C914016510684F0D6011C968C91CC
:10210200E82EF12CEE0CFF1CE60CF71CD701ED902B
:10211200FC904E145F040CF4BDC0D6011C968C9149
:102122008823A1F1082F10E001501048000F111F61
:10213200060D171DD8010D911C910415150534F1DA
:102142008301060F171F02501109D8010D911C912E
:1021520004151505DCF4AA94D6011B96AC921B97C4
:1021620081501C968C936A2D70E0660F771F660D66
:10217200771DDB010D911C91682F70E0660F771FB0
:10218200D301A60FB71FED90FC9084C00A2D10E07A
:102192000F5F1F4FE92CF12C0E151F059CF5082F20
:1021A20010E00F5F1F4F000F111F060D171DD80102
:1021B2000D911C91041515052CF1660D771DDB019F
:1021C20012966D917C91139764157505DCF4A394B6
:1021D200D6011B96AC921B978F5F1C968C936A2D2F
:1021E20070E0660F771F660D771DDB010D911C9164
:1021F200682F70E0660F771FD301A60FB71FED900F
:10220200FC9048C08FEF890D682F70E08B01000FA2
:10221200111F060D171DD8010D911C914016510674
:1022220039F081110EC004C081110BC001C08201BE
:10223200D6011B968C931B971C968C93A82E780123
:1022420029C040165106BCF061507048660F771FD6
:10225200660D771DDB01ED90FC904E145F045CF47B
:10226200D6011B968C931B976FEF680F1C966C938D
:10227200A82E862F0FC08150682F70E08B01000FAF
:10228200111F060D171DD8010D911C91041515057E
:1022920059F6CDCFD60113968D909C901497682F46
:1022A20070E0660F771F680D791DDB016D917C91DF
:1022B200892F90E06B01C80ED91ED601BC91BD8357
:1022C200CB2CD12C6C0D7D1DDB01BC91BE83B12CBE
:1022D200AA0CBB1CD401AA0DBB1D6D917C91DB0124
:1022E200A80FB91F2C90DB01AC0DBD1D3C90E2176D
:1022F200F30761F44A018E1A9F0A092C000CAA08FE
:10230200BB08BA2CA92C982C882415C0BA016E1BC4
:102312007F0BCB01770FAA0BBB0B6627782F892F78
:102322009A2F2E1B3F0B032E000C440B550B0E94C1
:10233200C42C49015A010E151F0561F4F201E01B7C
:10234200F10B6F01FF0FEE08FF08FE2CED2CDC2CC9
:10235200CC241CC09201201B310BC901330FAA0BE4
:10236200BB0B6627782F892F9A2F9701201B310BE1
:10237200032E000C440B550B0E94C42CC12CD12CF3
:102382007601D394C21AD30AE40AF50A412C512CDD
:102392003201539493018201081919092A093B0950
:1023A20009831A832B833C834C185D086E087F08CF
:1023B200A5019401C701B6010E94602D472F582F35
:1023C200692F772767FD7A95832D90E0849FF0012E
:1023D200859FF00D949FF00D1124A701960169814C
:1023E2007A818B819C810E94602D472F582F692F03
:1023F200772767FD7A95312C249EC001259E900D8A
:10240200349E900D1124E80FF91F29813A814B81E6
:102412005C81C301B2010E94602D472F582F692FA2
:10242200772767FD7A951D81212F30E0249FC00117
:10243200259F900D349F900D1124E80FF91FA501DF
:102442009401C301B2010E94602D472F582F692FBA
:10245200772767FD7A950E81202F30E0249FC001F7
:10246200259F900D349F900D1124E80FF91F8F2F97
:1024720090E02696CDBFDEBFDF91CF911F910F91E5
:10248200FF90EF90DF90CF90BF90AF909F908F9092
:0E2492007F906F905F904F903F902F90089535
:1024A0004F925F926F927F928F929F92AF92BF9264
:1024B000CF92DF92EF92FF920F931F93CF93DF9310
:1024C000CDB7DEB72C97CDBFDEBF6D837E838F8304
:1024D000988729833A834B835C83E986FA860B8746
:1024E0001C870E94162E2B013C010091E24C10919A
:1024F000E34C8091CA4C9091CB4C9201281B390B34
:10250000201731070CF4CFC1A60195016D817E81A2
:102510008F8198850E94CD2E8823FCF0A60195011D
:1025200069817A818B819C810E94CD2E8823ACF0B9
:1025300080E090E0A0EAB0E48093C24C9093C34C5A
:10254000A093C44CB093C54C8093C64C9093C74C99
:10255000A093C84CB093C94C92C129853A854B854C
:102560005C856D817E818F8198850E94C82E1816AA
:102570000CF129853A854B855C8569817A818B814F
:102580009C810E94C82E1816ACF080E090E0A0EA72
:10259000B0EC8093C24C9093C34CA093C44CB093C6
:1025A000C54C8093C64C9093C74CA093C84CB09335
:1025B000C94C65C12D813E814F81588569817A81E1
:1025C0008B819C810E945A2E69837A838B839C83A2
:1025D0002091B64C3091B74C4091B84C5091B94CC9
:1025E0000E94E32E2091C24C3091C34C4091C44CC8
:1025F0005091C54C0E945B2E6B017C016093C24CD4
:102600007093C34C8093C44C9093C54C8090AA4C5B
:102610009090AB4CA090AC4CB090AD4CA501940107
:102620000E94CD2E18164CF48092C24C9092C34C4E
:10263000A092C44CB092C54C18C08090AE4C909003
:10264000AF4CA090B04CB090B14CA5019401C70123
:10265000B6010E94C82E882344F48092C24C909206
:10266000C34CA092C44CB092C54C69817A818B81D5
:102670009C810E94612E9B01772324F4222733271B
:10268000261B370BB901330F880B990B0E94FB28CF
:102690002F8D38A149A15AA10E94C82E18168CF07E
:1026A0001092C24C1092C34C1092C44C1092C54C64
:1026B0001092C64C1092C74C1092C84C1092C94C44
:1026C000A5C02091BA4C3091BB4C4091BC4C50916C
:1026D000BD4C69817A818B819C810E94E32E20917F
:1026E000C24C3091C34C4091C44C5091C54C0E9497
:1026F0005B2E6B017C012091BE4C3091BF4C409110
:10270000C04C5091C14C6D817E818F8198850E9413
:102710005A2E2091B24C3091B34C4091B44C509110
:10272000B54C0E94E32E9B01AC01C701B6010E948B
:102730005A2E69877A878B879C87B801110F880B7F
:10274000990B0E94FB282091A64C3091A74C4091F8
:10275000A84C5091A94C0E94E32E20E030E04AE7BB
:1027600054E40E94DF2E6B017C018090C64C909057
:10277000C74CA090C84CB090C94CA5019401698584
:102780007A858B859C850E945A2E69837A838B83F8
:102790009C839B01AC01C701B6010E94C82E88230F
:1027A0007CF4A5019401C701B6010E945B2E6093E1
:1027B000C64C7093C74C8093C84C9093C94C26C0AC
:1027C000A7019601505869817A818B819C810E9472
:1027D000C82E88237CF4A7019601C501B4010E948C
:1027E0005A2E6093C64C7093C74C8093C84C9093FC
:1027F000C94C0CC089859A85AB85BC858093C64C35
:102800009093C74CA093C84CB093C94CC090C64C91
:10281000D090C74CE090C84CF090C94C8090AA4C26
:102820009090AB4CA090AC4CB090AD4CA5019401F5
:10283000C701B6010E94CD2E18164CF48092C64CEA
:102840009092C74CA092C84CB092C94C18C08090CE
:10285000AE4C9090AF4CA090B04CB090B14CA50154
:102860009401C701B6010E94C82E882344F48092C7
:10287000C64C9092C74CA092C84CB092C94C8D8166
:102880009E81AF81B8858093BE4C9093BF4CA0933E
:10289000C04CB093C14C4092CA4C5092CB4C609209
:1028A000CC4C7092CD4C6091C64C7091C74C8091CD
:1028B000C84C9091C94C2C96CDBFDEBFDF91CF9113
:1028C0001F910F91FF90EF90DF90CF90BF90AF904E
:0E28D0009F908F907F906F905F904F90089533
:1028DE004F925F926F927F928F929F92AF92BF9222
:1028EE00CF92DF92EF92FF920F931F93CF93DF93CE
:1028FE00CDB7DEB76C97CDBFDEBF6D837E838F8382
:10290E009887298B3A8B4B8B5C8BE986FA860B87E3
:10291E001C870E94162E2B013C018091A24C909197
:10292E00A34C9201281B390B8091DE4C9091DF4C09
:10293E00281739070CF4A6C12D813E814F81588589
:10294E0069897A898B899C890E945A2E6D8B7E8B20
:10295E008F8B988F2091964C3091974C4091984C3C
:10296E005091994C6D817E818F8198850E945A2E4F
:10297E00698F7A8F8B8F9C8F6D897E898F89988DC9
:10298E000E94612E9B01772324F422273327261BD6
:10299E00370BB901330F880B990B0E94FB28698303
:1029AE007A838B839C8329853A854B855C85C6010A
:1029BE00B5010E945A2E9B01AC0169817A818B81EF
:1029CE009C810E94DF2E9B01AC0166E676E686EEC8
:1029DE009EE30E945A2E69837A838B839C83298D72
:1029EE003A8D4B8D5C8D6D817E818F8198850E9495
:1029FE005B2E6D877E878F87988B29813A814B81DD
:102A0E005C816AE077ED83E29CE30E945A2E9B0183
:102A1E00AC016D857E858F8598890E94E32E6D872A
:102A2E007E878F87988B29813A814B815C816D815E
:102A3E007E818F8198850E94E32E9B01AC016D856E
:102A4E007E858F8598890E945B2E69837A838B831E
:102A5E009C839B01AC01C601B5010E94C82E1816BD
:102A6E00B4F0A601950169897A898B899C890E94A7
:102A7E00CD2E882364F080E090E0A0EAB0E480934D
:102A8E009A4C90939B4CA0939C4CB0939D4C298157
:102A9E003A814B815C8169857A858B859C850E9404
:102AAE00CD2E88230CF129853A854B855C85698965
:102ABE007A898B899C890E94C82E1816ACF080E00A
:102ACE0090E0A0EAB0EC80939A4C90939B4CA0932C
:102ADE009C4CB0939D4C80939E4C90939F4CA09396
:102AEE00A04CB093A14CBAC020918E4C30918F4C1B
:102AFE004091904C5091914C6D897E898F89988D23
:102B0E000E94E32E20919A4C30919B4C40919C4C0C
:102B1E0050919D4C0E945B2E4B015C0160939A4C30
:102B2E0070939B4C80939C4C90939D4CC090824C88
:102B3E00D090834CE090844CF090854CA701960188
:102B4E000E94CD2E18164CF4C0929A4CD0929B4CEB
:102B5E00E0929C4CF0929D4C20C08091864C9091BE
:102B6E00874CA091884CB091894C89879A87AB8706
:102B7E00BC879C01AD01C501B4010E94C82E8823FB
:102B8E0064F489859A85AB85BC8580939A4C909325
:102B9E009B4CA0939C4CB0939D4C2091924C3091A9
:102BAE00934C4091944C5091954C6D897E898F89B0
:102BBE00988D0E94E32E20919A4C30919B4C40911F
:102BCE009C4C50919D4C0E945B2E4B015C012091C0
:102BDE008A4C30918B4C40918C4C50918D4C698D20
:102BEE007A8D8B8D9C8D0E94E32E9B01AC01C501CD
:102BFE00B4010E945A2E4B015C0160939E4C70935F
:102C0E009F4C8093A04C9093A14C9B01AC01C701AB
:102C1E00B6010E94C82E88234CF4C0929E4CD092CE
:102C2E009F4CE092A04CF092A14C18C0C090864CE4
:102C3E00D090874CE090884CF090894CA70196017B
:102C4E00C501B4010E94C82E882344F4C0929E4C44
:102C5E00D0929F4CE092A04CF092A14C8D819E811F
:102C6E00AF81B8858093964C9093974CA093984CD7
:102C7E00B093994C4092A24C5092A34C6092A44CAB
:102C8E007092A54C60919E4C70919F4C8091A04C7F
:102C9E009091A14C6C96CDBFDEBFDF91CF911F916D
:102CAE000F91FF90EF90DF90CF90BF90AF909F90DD
:0C2CBE008F907F906F905F904F90089572
:102CCA00AF92BF92CF92DF92EF92FF920F931F9330
:102CDA00CF93DF930F2EFEE0EF2EF8E4FF2EF02DB8
:102CEA0000E010E00F2EFAE3CF2EFCE4DF2EF02DE9
:102CFA000F2EF7E0AF2EB12CF02DA801D7016D9160
:102D0A007D918D919D917D019801112314F4295F84
:102D1A003F4F359527953595279535952795F50193
:102D2A00E21BF30BEE0FFF1FD60113962D913C9178
:102D3A001497E20FF31F9A0127703078332334F483
:102D4A0021503109286F3F6F2F5F3F4FC081D181DA
:102D5A00C20FD31F0E94E62A68830F5F1F4F0034F9
:102D6A00110559F60F2EFEE0EF2EF9E4FF2EF02D95
:102D7A00C0E0D0E00F2EFAE3CF2EFCE4DF2EF02DD8
:102D8A00F70161917191819191917F01D601159617
:102D9A000D911C9116970C0F1D1F0E94E62AF8012F
:102DAA00608371832296C031D10551F70F2EFEE25E
:102DBA00EF2EF9E4FF2EF02DCEE0D0E00F2EFAE34D
:102DCA00CF2EFCE4DF2EF02DD7016D917D918D91F0
:102DDA009D917D01F601078110850C0F1D1F0E9430
:102DEA00E62AD8016D937C932297CE3FBFEFDB078B
:102DFA0059F7CAEADBE48091564990915749A09164
:102E0A005849B091594988839983AA83BB83809191
:102E1A005A4990915B49A0915C49B0915D498C8374
:102E2A009D83AE83BF8380915E4990915F49A09153
:102E3A006049B091614988879987AA87BB87809141
:102E4A006A4990916B49A0916C49B0916D498C8700
:102E5A009D87AE87BF8780916E4990916F49A091F7
:102E6A007049B0917149888B998BAA8BBB8B8091E1
:102E7A00724990917349A0917449B09175498C8BAC
:102E8A009D8BAE8BBF8B609176497091774980910B
:102E9A007849909179490E94E62A688F798F6091E2
:102EAA007A4970917B4980917C4990917D490E9431
:102EBA00E62A6B8F0F2EF6E8EF2EF9E4FF2EF02D9F
:102ECA0000E010E00F2EFDE2CF2EFCE4DF2EF02D05
:102EDA000F2EF7E0AF2EB12CF02DA801F70161916A
:102EEA007191819191917F019801112314F4295FC5
:102EFA003F4F359527953595279535952795F501B2
:102F0A00E21BF30BEE0FFF1FD60113962D913C9196
:102F1A001497E20FF31F9A0127703078332334F4A1
:102F2A0021503109286F3F6F2F5F3F4FC081D181F8
:102F3A00C20FD31F0E94E62A68830F5F1F4F003417
:102F4A00110559F60F2EF6E8EF2EFAE4FF2EF02DB2
:102F5A00C0E0D0E00F2EFDE2CF2EFCE4DF2EF02DF4
:102F6A00F70161917191819191917F01D601159635
:102F7A000D911C9116970C0F1D1F0E94E62AF8014D
:102F8A00608371832296C031D10551F70F2EF6EA7C
:102F9A00EF2EFAE4FF2EF02DCEE0D0E00F2EFDE268
:102FAA00CF2EFCE4DF2EF02DD7016D917D918D910E
:102FBA009D917D01F601078110850C0F1D1F0E944E
:102FCA00E62AD8016D937C932297CE3FBFEFDB07A9
:102FDA0059F7DF91CF911F910F91FF90EF90DF90FA
:082FEA00CF90BF90AF90089555
:102FF200CF93DF938091F74C882309F434C1E09199
:1030020002448E2F90E0FC01E354F109E133F10513
:1030120008F029C1EC58FF4F0C941F2E8BE40E943C
:103022003A2E1092F74C1FC1EAE0FCE486858F939A
:1030320085858F9384858F9383858F93AAEABBE4DA
:1030420059968C9159978F9358968C918F9386812C
:103052001F928F9385818F9384818F9383818F9326
:1030620082818F93C2E8DBE489811F928F936C8502
:103072007D8580E090E00E94F9289F938F937F9353
:103082006F936A857B8580E090E00E94F9289F9388
:103092008F937F936F936889798980E090E00E9493
:1030A200F9289F938F937F936F938D8D8F938C8D40
:1030B2008F938B8D8F938A8D8F9389858F9388853C
:1030C2008F938F818F938E818F938FA18F938EA1F8
:1030D2008F938DA18F938CA18F93898D8F93888DE0
:1030E2008F938F898F938E898F938BA18F938AA1D0
:1030F2008F9389A18F9388A18F93E6E5FCE4858164
:103102008F9384818F9383818F9382818F93E7E45E
:10311200FCE483818F9382818F9381818F9380815D
:103122008F9382E292E89F938F9382E090E49F9341
:103132008F930E942D2D8DB79EB7CA968DBF9EBFCD
:1031420082E090E40E94E72B1092F74C8CC06DE66F
:1031520072E882E094E40E94BA288093DA4C909359
:10316200DB4C009729F1C091D84CD091D94C0E94E8
:10317200D22ECC0FDD1FCC0FDD1FCE5FD74B688365
:1031820079838A839B838091D84C9091D94C019604
:103192008093D84C9093D94C6DE672E880E090E031
:1031A2000E94BA288093DA4C9093DB4C0097D9F6B0
:1031B2000E94651681E08093F64C1092D84C1092D2
:1031C200D94C1092F74C89E40E943A2E4CC0E2E0AE
:1031D200F4E481812281A7E4BCE490E0922B8D93F8
:1031E2009C931197838190E012968D939C931397F1
:1031F2008481258190E0922B14968D939C93159750
:10320200868116968C931697878117968C931092C7
:10321200F74C29C0E2E0F4E48181228190E0922B14
:103222008093A04B9093A14B1092F74C1CC082E06C
:103232008093834B1092F74C89E40E943A2E13C07C
:103242001092F74C89E40E943A2E9FE121EA87E02E
:10325200915020408040E1F700C0000091E088EDED
:1032620084BF909341008091F64CDF91CF910895F5
:10327200A4E1B0E0EFE3F9E10C947B2C8F83988713
:1032820069837A834B8B5C8B122FDB011296ED9153
:10329200FC91139714962D913C9115972D833E83A3
:1032A200CD90DC90119716962D903C901797F7FDD4
:1032B20003C0E894C1F802C0E1E0F0E0C601807109
:1032C200992789879A87C4FE1FC0AB89BC892C9134
:1032D20011963C91119712964C91129713965C910C
:1032E200139714966C91149715967C9115971696D0
:1032F2008C91169717969C91A0E00E94DD2D21F0EB
:103302008D819E81029702C08D819E8196012870D7
:1033120033272B873C87C3FC0197AB89BC894C9030
:1033220011965C90119712966C90129713967C905E
:10333200139714968C90149715969C901597169641
:10334200AC9016971796BC90A981BA811896ED9009
:10335200FC901997B1E0EB1AF108D101AE0DBF1D37
:103362001C928B839C839F01281B390B2D873E87E0
:10337200C601827099278F87988B812F012E000CAE
:10338200990BDC01A154B109A98BBA8B32E0E31687
:10339200F10434F489859A85892B09F04CC073C0F5
:1033A2009201A301B401C501A0E00E94DD2D81F1CB
:1033B200B1E0EB1AF108C2018F7099278A309105AA
:1033C20014F4C09602C0895A9F4FE989FA897A9704
:1033D20048F49C012062215631092A31310510F44A
:1033E2000E94312EF101EE0DFF1D80832B813C8165
:1033F200215031092B833C839201A301B401C50101
:1034020004E00E94082C29013A014B015C01BECF65
:103412008D859E85AB81BC818A0F9B1F181619066C
:103422003CF21A161B060CF0B5CFEF85F889EF2B8C
:1034320009F0BECFAFCFAB89BC892C9111963C91DC
:10344200119712964C91129713965C9113971496BA
:103452006C91149715967C91159716968C911697E8
:1034620017969C91A0E00E94DD2D69F0F101EE0D0E
:10347200FF1D31971083B2E0EB1AF108F101EE0D56
:10348200FF1D80E38083EB85FC85EF2B41F0F1E0AB
:10349200EF1AF108F101EE0DFF1D80E28083A98190
:1034A200BA8118964D915C911997415051094E1964
:1034B2005F09B1016E0D7F1D86012D813E818F81D5
:1034C20098850E947D279C01EF81F88580819181FA
:1034D20090FF09C0A981BA8112968D919C91139790
:1034E200821793070CF4C9016496E2E10C94AC2CA8
:1034F2000F931F93CF93DF930E94162E00917A4C65
:1035020010917B4C20917C4C30917D4CDC01CB01A5
:10351200801B910BA20BB30B0B97A105B10508F40D
:10352200ACC00E94162E60937A4C70937B4C8093B1
:103532007C4C90937D4C8091F54C813009F44EC0C7
:1035420020F0823009F492C098C08CED90E00E9485
:10355200502A8091924B9091934B893E9340A8F1CF
:103562008091764C9091774CA091784CB091794CA7
:103572000196A11DB11D8093764C9093774CA09338
:10358200784CB093794C8997A105B1050CF475C0BC
:10359200C2E8DBE46C817D816C877D87772780E0E0
:1035A20094E10E94DB2C6D8570E081E094E10E9441
:1035B200DB2C81E08093F54C1092764C1092774C84
:1035C2001092784C1092794C58C01092764C10920E
:1035D200774C1092784C1092794C4FC084E29FEF56
:1035E2000E94502A8091924B9091934B893E934036
:1035F200A0F18091764C9091774CA091784CB0914B
:10360200794C0196A11DB11D8093764C9093774C15
:10361200A093784CB093794C8997A105B1056CF1D0
:10362200C2E8DBE46C817D816A877B87772782E051
:1036320094E10E94DB2C6B8570E083E094E10E94B0
:10364200DB2C82E08093F54C1092764C1092774CF2
:103652001092784C1092794C10C01092764C1092C5
:10366200774C1092784C1092794C07C01092F54C1E
:103672000E94BE2E83E08093834B8091F54CDF91B4
:08368200CF911F910F910895F3
:10368A00ADE0B0E0EBE4FBE10C947B2C89879A87F0
:10369A006B837C83FA01DB011296CD90DC90139741
:1036AA0014968D919C9115978D839E83ED90FC9035
:1036BA001197E982FA8216960D90BC91A02DAF83DC
:1036CA00B8872080318042805380648075808680EC
:1036DA0097808101B42DF52DE62D7B868C869D86FB
:1036EA009101A201B301C401A0E00E94DD2D4CF4B6
:1036FA000E94702D8901B42FF52FE62F7B878C87C6
:10370A009D87D7FC04C0E894E1F8E982FA82910126
:10371A00A201B301C401A0E0ED80FE800E94DD2D6C
:10372A001CF0898182FF04C081E0E81AF10805C013
:10373A0083FF03C091E0E91AF108CE0101965C010A
:10374A008AE0C82ED12C2B2F3F2F4E2F5B856C85FC
:10375A007D858B819C810E94271EFC019101A2011B
:10376A00B301C401A0E00E94DD2D1CF0898182FF13
:10377A0012C031970F8118850E0F1F1F9101A201E8
:10378A00B301C401A0E00E94DD2D14F08BE201C058
:10379A008DE2D80108C083FF07C03197AF81B88591
:1037AA00AE0FBF1F80E28C9309811A81AB81BC8165
:1037BA0018964D915C911997415051094E1B5F0B18
:1037CA006F8178856E0F7F1F2D813E8189859A854D
:1037DA000E947D279C01E985FA858081918190FF6D
:1037EA0009C0AB81BC8112968D919C911397821767
:0E37FA0093070CF4C9012D96E2E10C94AC2C5F
:103808000F931F93CF93DF93FC01D901683871059B
:1038180031F194F461387105B1F12CF46038710517
:1038280009F478C09FC06238710509F459C064383A
:10383800710509F46FC096C0603A710509F448C073
:103848002CF46039710509F44BC08CC0603C7105DB
:1038580009F476C0603F710509F472C083C0CD9148
:10386800DC911197CE0102968D939C93452B39F0EC
:103878009881892F880F880B908381835BC088810A
:103888008083118268C0CD91DC911197CE01049696
:103898008D939C93452B99F088819981AA81BB814E
:1038A800AC01BD01770F440B542FBA01808391837B
:1038B800A283B383448345834683478328C0088112
:1038C80019812A813B81008311832283338345C078
:1038D800CD91DC911197CE0102968D939C9323C0D4
:1038E800CD91DC911197CE0108968D939C937881A8
:1038F80069815A814B813C812D819E818F817083A2
:10390800618352834383348325839683878381E04D
:1039180090E02AC0CD91DC911197CE0102968D934B
:103928009C93452BA1F099812881892F880F880BBA
:103938002083918382838383848385838683E6CFF0
:10394800CD91DC911197CE0102968D939C930881BD
:1039580019810083118312821382148215821682C0
:103968001782D5CF80E090E0DF91CF911F910F9122
:023978000895B0
:10397A004F925F926F927F928F929F92AF92BF9275
:10398A00CF92DF92EF92FF920F931F93CF93DF9321
:10399A0000D000D0CDB7DEB74B015C0129013A0156
:1039AA006701780120E030E0A9010E94C82E88232F
:1039BA000CF47FC020E030E0A901C301B2010E94EB
:1039CA00C82E88230CF475C020E030E0A901C70195
:1039DA00B6010E94C82E88230CF46BC06091E24C99
:1039EA007091E34C072E000C880B990B0E94FB2860
:1039FA0069837A838B839C838092BA4C9092BB4C66
:103A0A00A092BC4CB092BD4C9B01AC01C301B20167
:103A1A000E94E32E2B013C016093B64C7093B74C85
:103A2A008093B84C9093B94C29813A814B815C813F
:103A3A00C701B6010E94DF2E6B017C016093B24C74
:103A4A007093B34C8093B44C9093B54C8091E04CF6
:103A5A009091E14C019769F5A501940160E070E04D
:103A6A00CB010E945A2E6093BA4C7093BB4C809340
:103A7A00BC4C9093BD4CA301920160E070E0CB0175
:103A8A000E945A2E6093B64C7093B74C8093B84CF0
:103A9A009093B94CA701960160E070E0CB010E94B7
:103AAA005A2E6093B24C7093B34C8093B44C90935B
:103ABA00B54C2496CDBFDEBFDF91CF911F910F91F8
:103ACA00FF90EF90DF90CF90BF90AF909F908F9034
:0A3ADA007F906F905F904F90089569
:103AE4004F925F926F927F928F929F92AF92BF920A
:103AF400CF92DF92EF92FF920F931F93CF93DF93B6
:103B040000D000D0CDB7DEB74B015C0129013A01EA
:103B14006701780120E030E0A9010E94C82E8823C3
:103B24000CF47FC020E030E0A901C301B2010E947F
:103B3400C82E88230CF475C020E030E0A901C70129
:103B4400B6010E94C82E88230CF46BC06091DE4C31
:103B54007091DF4C072E000C880B990B0E94FB28F8
:103B640069837A838B839C838092924C9092934C4A
:103B7400A092944CB092954C9B01AC01C301B2014C
:103B84000E94E32E2B013C0160938E4C70938F4C6A
:103B94008093904C9093914C29813A814B815C8124
:103BA400C701B6010E94DF2E6B017C0160938A4C31
:103BB40070938B4C80938C4C90938D4C8091DC4C07
:103BC4009091DD4C019769F5A501940160E070E0E6
:103BD400CB010E945A2E6093924C7093934C809325
:103BE400944C9093954CA301920160E070E0CB015A
:103BF4000E945A2E60938E4C70938F4C8093904CFD
:103C04009093914CA701960160E070E0CB010E9473
:103C14005A2E60938A4C70938B4C80938C4C909367
:103C24008D4C2496CDBFDEBFDF91CF911F910F91B4
:103C3400FF90EF90DF90CF90BF90AF909F908F90C8
:0A3C44007F906F905F904F900895FD
:103C4E00A2E1B0E0EDE2FEE10C947B2CFC010A8BCC
:103C5E001B832C83732E642E552E462E7D83CC868D
:103C6E00D886AE82BF82868197818A879B87D5014F
:103C7E004D915C91228133818085918501971C0144
:103C8E0037FF02C021E030E0EA85FB85E80FF91F1F
:103C9E0010824701E1E0F0E0E983FA83C9018E1951
:103CAE009F098D879E87DA01A270BB27AF87B88BDD
:103CBE00B885BB0FBB0BB98B1214130474F0A9811A
:103CCE00BA81AB2B09F05CC0AE81BF818D919C9106
:103CDE0011978F7E8D939C9353C02A893B814C8183
:103CEE00572D662D752D842D9D81A0E00E94DD2D12
:103CFE00B1F1E1E02E1A3108FC85F987AF2EB884B8
:103D0E00C988DC2CEC2CFC2C0C2D1C2D2A893B811B
:103D1E004C81572D662D752D842D9D810E949D2DD4
:103D2E00C90129839A83EA85FB85E20DF31D805D27
:103D3E00808381E0881A91082A893B814C81572D16
:103D4E00662D752D842D9D810E949F2D2A8B3B8380
:103D5E004C83752E662E572E482E9D83ADCF8D85A6
:103D6E009E85880D991D181619061CF21814190433
:103D7E000CF0A5CFEF85F889EF2B09F0BACF9FCFC6
:0A3D8E00C1016296E2E10C94AC2C36
:103D9800A5E1B0E0E2EDFEE10C947B2C470158016F
:103DA8000E94E32E2B013C01A80197010E945B2E83
:103DB800162FC72ED82EF92E862F9C2DAD2DBF2D50
:103DC80089839A83AB83BC83AA81FB81EC81ED80D4
:103DD8003E802F8008850D8B5E2F5F71212F3A2F33
:103DE8004F2F60E070E080E090E02115310541053B
:103DF80000E15007610571058105910509F05EC074
:103E08005E2F6E2D732D822D9D8904E30E94082C50
:103E18002D873E874F87588B698B7A8B8B8B9C8B32
:103E28008D859E8597708F3F974009F447C0A30101
:103E38009201612F7C2D8D2D9F2D0E945A2E9B0162
:103E4800AC01C501B4010E94C82E8823B9F1498686
:103E58005A866B867C8629853A854B855C85C501A3
:103E6800B4010E945B2EB62E872E982EA92E262FDF
:103E7800372F482F592F612F7C2D8D2D9F2D0E9474
:103E8800C82E811118C02B2D8B2D982DA92DBA2D38
:103E980089839A83AB83BC833A814B815C816E2D85
:103EA800732D822D9D89A1E00E94E92D122FC32E2A
:103EB800D42EF52E03C01B2D6401FA2C612F7C2D06
:0C3EC8008D2D9F2D6596E2E10C94AC2C32
:103ED4004F925F926F927F928F929F92AF92BF9216
:103EE400CF92DF92EF92FF92CF93DF93CDB7DEB7FD
:103EF4002897CDBFDEBF6B017C01DC01CB0147E11C
:103F0400B695A795979587954A95D1F799278F5791
:103F14009109873191059CF597FD36C088248A94D0
:103F2400982C3FE7A32EB12C04C0B594A794979482
:103F340087948A95D2F7D501C4018C219D21AE21A5
:103F4400BF21892B8A2B8B2BD1F020E030E040E875
:103F54005BE7C701B6010E945B2E6D837E838F836E
:103F64009887F7FE04C0C80CD91CEA1CFB1C80947B
:103F74009094A094B094C820D920EA20FB205C2D12
:103F84004D2D3E2D2F2D21C020E030E040E85BE791
:103F9400C701B6010E945B2E69837A838B839C835D
:103FA400F7FE0FC0D701C601880F991FAA1FBB1FB8
:103FB400892B8A2B8B2B19F350E040E030E82FEB50
:103FC40004C050E040E030E020E0652F742F832FE0
:103FD400922F2896CDBFDEBFDF91CF91FF90EF9057
:103FE400DF90CF90BF90AF909F908F907F906F9015
:063FF4005F904F9008955C
:103FFA001F921FB61F9211242F932BB72F933F9313
:10400A004F935F936F937F938F939F93AF93BF93D6
:10401A00EF93FF932091400880917E4C90917F4CC2
:10402A00A091804CB091814C811534E09307A10591
:10403A00B10590F081E08093F74C2093024481E02F
:10404A0090E0A0E0B0E080937E4C90937F4CA093E8
:10405A00804CB093814C40C0FC01EE5FFB4B208347
:10406A00AC01BD014F5F5F4F6F4F7F4F40937E4C56
:10407A0050937F4C6093804C7093814C443051052F
:10408A006105710548F1AC01BD0142505109610950
:10409A007109FA01EE5FFB4B20812534E9F4AC018A
:1040AA00BD014150510961097109FA01EE5FFB4BEB
:1040BA0020812E3489F4FC01EE5FFB4B808184342D
:1040CA0059F410927E4C10927F4C1092804C1092B0
:1040DA00814C81E08093F74CFF91EF91BF91AF91B2
:1040EA009F918F917F916F915F914F913F912F9106
:0C40FA002BBF2F911F901FBE1F90189528
:104106004F925F926F927F928F929F92AF92BF92E1
:10411600CF92DF92EF92FF924B015C0169017A0127
:104126000E94CD2E18160CF462C08092AE4C90926E
:10413600AF4CA092B04CB092B14CC092AA4CD09267
:10414600AB4CE092AC4CF092AD4C4090C64C5090CB
:10415600C74C6090C84C7090C94CA3019201C7012E
:10416600B6010E94C82E88234CF4C092C64CD09249
:10417600C74CE092C84CF092C94C10C0A301920102
:10418600C501B4010E94CD2E181644F48092C64C87
:104196009092C74CA092C84CB092C94C4090C24C69
:1041A6005090C34C6090C44C7090C54CA3019201D2
:1041B600C701B6010E94C82E88234CF4C092C24C97
:1041C600D092C34CE092C44CF092C54C10C0A301EF
:1041D6009201C501B4010E94CD2E181644F48092B6
:1041E600C24C9092C34CA092C44CB092C54CFF9066
:1041F600EF90DF90CF90BF90AF909F908F907F9081
:084206006F905F904F90089546
:10420E004F925F926F927F928F929F92AF92BF92D8
:10421E00CF92DF92EF92FF924B015C0169017A011E
:10422E000E94CD2E18160CF462C08092864C90928D
:10423E00874CA092884CB092894CC092824CD092FE
:10424E00834CE092844CF092854C40909E4C509062
:10425E009F4C6090A04C7090A14CA3019201C7019D
:10426E00B6010E94C82E88234CF4C0929E4CD09268
:10427E009F4CE092A04CF092A14C10C0A301920171
:10428E00C501B4010E94CD2E181644F480929E4CA6
:10429E0090929F4CA092A04CB092A14C40909A4C00
:1042AE0050909B4C60909C4C70909D4CA301920141
:1042BE00C701B6010E94C82E88234CF4C0929A4CB6
:1042CE00D0929B4CE0929C4CF0929D4C10C0A3015E
:1042DE009201C501B4010E94CD2E181644F48092AD
:1042EE009A4C90929B4CA0929C4CB0929D4CFF90FD
:1042FE00EF90DF90CF90BF90AF909F908F907F9078
:08430E006F905F904F9008953D
:104316004F925F926F927F928F929F92AF92BF92CF
:10432600CF92DF92EF92FF920F931F93CF93DF937B
:104336004B015C017A01E9010E94162E40906E4CF9
:1043460050906F4C6090704C7090714C6415750570
:104356008605970509F160936E4C70936F4C8093B8
:10436600704C9093714C888199819C012F5F3F4FCF
:1043760028833983880F991F880F991FF701E80F43
:10438600F91F80829182A282B382888199818017E7
:10439600910714F01882198210161106CCF4E70161
:1043A6005801AA0CBB1CAA0CBB1CAE0CBF1CC12C12
:1043B600D12C76012991399149915991C701B601BC
:1043C6000E945B2E6B017C01CA15DB0599F703C0C1
:1043D600C12CD12C7601B801110F880B990B0E94C4
:1043E600FB289B01AC01C701B6010E94DF2EDF91BD
:1043F600CF911F910F91FF90EF90DF90CF90BF90DC
:10440600AF909F908F907F906F905F904F900895A0
:10441600EF92FF920F931F93CF93DF936091F04C2F
:104426007091F14C6115710509F45BC0FB01A0E0C8
:10443600B0E040E050E0C0E0D0E000811181228190
:1044460033810817190771F4109729F012962D93E6
:104456003C93139704C02093F04C3093F14CCF015A
:10446600029641C08017910748F4209729F0E8800A
:10447600F9800E151F0510F4AD01EF01DF012115BE
:10448600310511F0F901D9CF209759F10A811B8125
:10449600FE0121913191281B390B2530310588F019
:1044A60088839983DF01A80FB91F225031092D9304
:1044B6003C93119712960C93129713961C9313978D
:1044C6008D01C617D70729F40093F04C1093F14CD1
:1044D60006C0DA0112960C93129713961C93CF011D
:1044E60002C080E090E0CDB7DEB7E6E00C94B82CD1
:1044F60010C00E946F2E58F00E94682E40F029F4DA
:104506005F3F29F00C94902E51110C94772E0C9449
:10451600EA2E0E94632B68F39923B1F3552391F396
:10452600951B550BBB27AA2762177307840738F01C
:104536009F5F5F4F220F331F441FAA1FA9F335D079
:104546000E2E3AF0E0E832D091505040E695001C2D
:10455600CAF72BD0FE2F29D0660F771F881FBB1FE7
:10456600261737074807AB07B0E809F0BB0B802DC5
:10457600BF01FF2793585F4F3AF09E3F510578F0F1
:104586000C94902E0C94772E5F3FE4F3983ED4F370
:10459600869577956795B795F7959F5FC9F7880FC5
:1045A600911D9695879597F90895E1E0660F771F17
:1045B600881FBB1F621773078407BA0720F0621BA8
:0E45C600730B840BBA0BEE1F88F7E095089577
:1045D400A2E0B0E0E0EFF2E20C94852C8C0186E3DB
:1045E40099E20115110509F455C0892B79F00230BF
:1045F400110510F402E010E0C8010E940B2200979C
:1046040009F04FC092E0E92EF12C04C086E3E82EB5
:1046140089E2F82E8091E44C9091E54C2091E64C8F
:104624003091E74C821B930B6701C00ED11E80179B
:104634009107F0F4C982DA82CE0101960E94E5293D
:10464400009719F480E090E02CC02091E44C309164
:10465400E54C8217930721F08093E64C9093E74C46
:1046640029813A81820F931F8093E44C9093E54C07
:10467400E091E64CF091E74CCF01E114F10419F01C
:10468400029600831183CE0EDF1EC092E64CD092B8
:10469400E74C07C0009709F0ADCF7C0101E010E0C2
:0A46A400B9CF2296E8E00C94B62C82
:1046AE00CF93DF93DC01F90164387105D9F164F41D
:1046BE006138710521F16238710509F440C0603826
:1046CE00710509F054C02EC060397105C1F184F432
:1046DE006838710509F04BC0C081D181CE010296B8
:1046EE0080839183E881F981ED93FC9340833CC0F4
:1046FE00603A7105B9F0603C7105A1F038C0C08117
:10470E00D181CE01029680839183E881F981ED9368
:10471E00FC93052E000C660B770B4083518362834E
:10472E00738322C0C081D181CE0102968083918392
:10473E00E881F981ED93FC934083518315C0C081CC
:10474E00D181CE01029680839183E881F981ED9328
:10475E00FC9340835183852F880F880B828383833C
:10476E00848385838683878381E090E002C080E026
:08477E0090E0DF91CF91089556
:104786000FC00E94682E38F00E946F2E20F09523ED
:1047960011F00C94902E0C94EA2E11240C94772E82
:1047A6000E94632B70F3959FC1F3950F50E0551F40
:1047B600629FF001729FBB27F00DB11D639FAA2770
:1047C600F00DB11DAA1F649F6627B00DA11D661FBF
:1047D600829F2227B00DA11D621F739FB00DA11DE0
:1047E600621F839FA00D611D221F749F3327A00D9A
:1047F600611D231F849F600D211D822F762F6A2F36
:1048060011249F5750409AF0F1F088234AF0EE0F9A
:10481600FF1FBB1F661F771F881F91505040A9F7C7
:104826009E3F510580F00C94902E0C94772E5F3F9E
:10483600E4F3983ED4F3869577956795B795F79503
:10484600E7959F5FC1F7FE2B880F911D969587957B
:0448560097F9089531
:10485A00A2E0B0E0E3E3F4E20C947B2C1C014B01F0
:10486A00FA01DB0112962D913C91139714964D9003
:10487A005C9015978D919C91119789839A831696CE
:10488A006D907C90179737FD03C08D7F89839A833B
:10489A00008111812281338144815581668177812A
:1048AA00FE0131965F0188E0C82ED12C7201C40145
:1048BA000E94271E298124FF06C00197F301E80FF1
:1048CA00F91F20E32083298123FF06C00197F30102
:1048DA00E80FF91F20E2208309811A81D401189672
:1048EA004D915C91199741505109481B590BB301DD
:1048FA00680F791F9201C1010E947D279C01F10175
:10490A008081918190FF08C0D40112968D919C916B
:10491A001397821793070CF4C9012296E2E10C94CB
:02492A00AC2CB3
:10492C0011C00E94682E38F00E946F2E20F039F4CE
:10493C009F3F19F426F40C94EA2E0EF4E095E7FB55
:10494C000C94902EE92F0E94632B58F3BA17620730
:10495C0073078407950720F079F4A6F50C94762E4E
:10496C000EF4E0950B2EBA2FA02D0B01B90190017E
:10497C000C01CA01A0011124FF27591B99F0593FC2
:10498C0050F4503E68F11A16F040A22F232F342F0A
:10499C004427585FF3CF469537952795A795F04058
:1049AC005395C9F77EF41F16BA0B620B730B840B6D
:1049BC00BAF09150A1F0FF0FBB1F661F771F881F25
:1049CC00C2F70EC0BA0F621F731F841F48F487957D
:1049DC0077956795B795F7959E3F08F0B0CF93956F
:0E49EC00880F08F09927EE0F9795879508958C
:1049FA004F925F926F927F92AF92BF92CF92DF9265
:104A0A00EF92FF920F931F93CF93DF93CDB7DEB749
:104A1A006097CDBFDEBF69877A878B879C8729011C
:104A2A003A01C801B7010E945A2E0E94612E6D8771
:104A3A007E878F87988BA301920169857A858B85FA
:104A4A009C850E945A2E2B013C01A601950169A161
:104A5A007AA18BA19CA10E945A2E9B01AC01C30191
:104A6A00B2010E94E32E0E94612E2D853E854F855C
:104A7A0058890E94C52D29833A834B835C836981B7
:104A8A007A818B819C810E94FB28A60195010E9454
:104A9A005B2E6096CDBFDEBFDF91CF911F910F9144
:104AAA00FF90EF90DF90CF90BF90AF907F906F9084
:064ABA005F904F9008958B
:104AC0000F920FB60F921F9211242F932BB72F9393
:104AD0003F938F939F93AF93BF93EF93FF93CF93A6
:104AE000DF9300D000D0CDB7DEB7E0E0F6E08089FC
:104AF00091899C01329522952F7023273F7023279F
:104B0000198285E18A8381E08B8383E18C838091A4
:104B1000F44CDE01A80FB11D11969C919087813055
:104B200059F028F0823069F0833081F013C020936F
:104B3000564C3093574C0EC020930A4C30930B4C7C
:104B400009C02093864B3093874B04C02093904B31
:104B50003093914B8F5F83708093F44C2496CDBF3C
:104B6000DEBFDF91CF91FF91EF91BF91AF919F9108
:104B70008F913F912F912BBF2F911F900F900FBEC0
:044B80000F901895E5
:104B84008F929F92AF92BF92CF92DF92EF92FF9259
:104B94006093BE4C7093BF4C8093C04C9093C14CB7
:104BA400C090C64CD090C74CE090C84CF090C94C13
:104BB400C092C24CD092C34CE092C44CF092C54C0B
:104BC4008090AA4C9090AB4CA090AC4CB090AD4C63
:104BD400A5019401C701B6010E94CD2E18164CF40C
:104BE4008092C24C9092C34CA092C44CB092C54CDB
:104BF40018C08090AE4C9090AF4CA090B04CB09048
:104C0400B14CA5019401C701B6010E94C82E8823A6
:104C140044F48092C24C9092C34CA092C44CB09283
:104C2400C54CFF90EF90DF90CF90BF90AF909F90D6
:044C34008F900895C0
:104C38008F929F92AF92BF92CF92DF92EF92FF92A4
:104C48006093964C7093974C8093984C9093994CA2
:104C5800C0909E4CD0909F4CE090A04CF090A14CFE
:104C6800C0929A4CD0929B4CE0929C4CF0929D4CF6
:104C78008090824C9090834CA090844CB090854C4E
:104C8800A5019401C701B6010E94CD2E18164CF457
:104C980080929A4C90929B4CA0929C4CB0929D4CC6
:104CA80018C08090864C9090874CA090884CB0900B
:104CB800894CA5019401C701B6010E94C82E88231A
:104CC80044F480929A4C90929B4CA0929C4CB09247
:104CD8009D4CFF90EF90DF90CF90BF90AF909F904A
:044CE8008F9008950C
:104CEC00CF92DF92EF92FF92CF93DF9318161906B3
:104CFC000CF047C0EC01BC01990F880B990B0E947A
:104D0C00FB286B017C016091E24C7091E34C072E07
:104D1C00000C880B990B0E94FB289B01AC01C7016E
:104D2C00B6010E94DF2E6B017C019B01AC016091EE
:104D3C00B64C7091B74C8091B84C9091B94C0E9484
:104D4C00E32E6093B64C7093B74C8093B84C909311
:104D5C00B94CA70196016091B24C7091B34C809103
:104D6C00B44C9091B54C0E94DF2E6093B24C709372
:104D7C00B34C8093B44C9093B54CC093E24CD0930D
:104D8C00E34CDF91CF91FF90EF90DF90CF9008959F
:104D9C00CF92DF92EF92FF92CF93DF931816190602
:104DAC000CF047C0EC01BC01990F880B990B0E94C9
:104DBC00FB286B017C016091DE4C7091DF4C072E5F
:104DCC00000C880B990B0E94FB289B01AC01C701BE
:104DDC00B6010E94DF2E6B017C019B01AC0160913E
:104DEC008E4C70918F4C8091904C9091914C0E9474
:104DFC00E32E60938E4C70938F4C8093904C9093D9
:104E0C00914CA701960160918A4C70918B4C8091CA
:104E1C008C4C90918D4C0E94DF2E60938A4C709339
:104E2C008B4C80938C4C90938D4CC093DE4CD093D8
:104E3C00DF4CDF91CF91FF90EF90DF90CF900895F2
:104E4C00A2E0B0E0ECE2F7E20C947B2C3C014B01CD
:104E5C00FA01DB0112962D913C91139714964D900B
:104E6C005C9015978D919C91119789839A831696D6
:104E7C002D903C90179737FD03C08D7F89839A83C3
:104E8C000081118122813381448155816681778132
:104E9C00FE0131965F018AE0C82ED12C7201C4014B
:104EAC000E94271E09811A81D40118964D915C919C
:104EBC00199741505109481B590BB101680F791FC3
:104ECC009201C3010E947D279C01F3018081918195
:104EDC0090FF08C0D40112968D919C911397821764
:0E4EEC0093070CF4C9012296E2E10C94AC2C61
:104EFA00A0E1B0E0E3E8F7E20C947D2C5C013B0111
:104F0A006A017901280181E04822552400FD14C074
:104F1A00421753078CF487010C191D094801A8018F
:104F2A000131110510F040E150E060E270E0CE017D
:104F3A0001960E94282E0AC0A601B301C5010E944B
:104F4A00242CCE14DF043CF3C60120C00031110525
:104F5A0058F040E150E0BE016F5F7F4FC5010E94EB
:104F6A00242C00511109F2CFA4014F705527BE011C
:104F7A006F5F7F4FC5010E94242C4114510429F40C
:104F8A00A601B301C5010E94242CC7016096E0E185
:044F9A000C94AE2C99
:104F9E007F928F929F92AF92BF92CF92DF92EF92BB
:104FAE00FF920F931F93CF93DF937C01762EC62E25
:104FBE00D12C5601AA0CBB1CC5010E94EA22F70196
:104FCE00838394837720C9F00FEF070D10E00F5FF6
:104FDE001F4F000F111F812C912CF701C381D4811B
:104FEE00C80DD91DC6010E94EA2288839983F2E07A
:104FFE008F0E911C8016910681F7C5010E94EA2240
:10500E00F70185839683C5010E94EA22F701878303
:10501E00908771827282DF91CF911F910F91FF90D5
:10502E00EF90DF90CF90BF90AF909F908F907F903A
:02503E000895D3
:1050400088249924F401E401B0E49F93AA279A15D7
:105050008B049C04ED05FE05CF05D007A10798F44D
:10506000AD2FDC2FCF2FFE2FE92D982C892E982FD6
:10507000872F762F652F542F432F322F2227B8509A
:1050800031F7BF9127C01B2EBF91BB27220F331FC3
:10509000441F551F661F771F881F991F881C991C66
:1050A000EE1FFF1FCC1FDD1FAA1FBB1F8A149B040E
:1050B000EC05FD05CE05DF05A007B10748F08A180D
:1050C0009B08EC09FD09CE09DF09A00BB10B21609B
:1050D0001A94E1F62EF49401AF01BE01CD01000C4B
:0250E000089531
:1050E2000F931F93CF93DF93DB012D913C91119787
:1050F20030FF25C016964D915C91179714962D910D
:105102003C9115974217530778F41296ED91FC9152
:105112001397808312962D913C9113972F5F3F4FE7
:1051220012962D933C93139716962D913C911797B7
:105132002F5F3F4F16962D933C93179715C01C96E1
:10514200ED91FC911D97309719F48FEF9FEF0CC0F2
:105152008B01EC010995892BC1F7F80186819781B2
:10516200019686839783CE01DF91CF911F910F9194
:0251720008959E
:105174000F931F93CF93DF93EC018B01892B31F4B1
:10518400C091E84CD091E94C209751F1B801CE017F
:105194000E945E2CC80FD91F8881811105C010920E
:1051A400E84C1092E94C1DC0B801CE010E94412C7C
:1051B400FE01E80FF91FE093E84CF093E94C80817D
:1051C400882341F0CF0101968093E84C9093E94CF9
:1051D400108204C01092E84C1092E94CCE0102C037
:0E51E40080E090E0DF91CF911F910F91089530
:1051F200E89409C097FB3EF490958095709561956F
:105202007F4F8F4F9F4F9923A9F0F92F96E9BB2724
:105212009395F695879577956795B795F111F8CFA0
:10522200FAF4BB0F11F460FF1BC06F5F7F4F8F4F0B
:105232009F4F16C0882311F096E911C0772321F001
:105242009EE8872F762F05C0662371F096E8862F99
:1052520070E060E02AF09A95660F771F881FDAF7F0
:0A526200880F9695879597F9089537
:10526C000097C9F1FC013297A091F04CB091F14C30
:10527C00109759F1408151819C01240F351FA217C1
:10528C00B30779F412968D919C9113978283938333
:10529C002D913C91CA01820F931F029680839183BA
:1052AC0016C08D919C9111979C012E5F3F4F2A0F38
:1052BC003B1FE217F30731F4840F951F02968D9371
:1052CC009C930895A283B38302C012821382E0934D
:0852DC00F04CF093F14C089531
:1052E400A0E1B0E0E8E7F9E20C94872CFB01BA01F5
:1052F400AE014F5F5F4F7A0140E1D7011D924A959D
:10530400E9F742E051E049835A838B839C83F7FF9A
:1053140009C08FE490E080930040909301408FEFA8
:105324009FEF14C0A9018C013197ED83FE83C7015F
:105334000E94942C4F8158852D813E81421753073A
:1053440008F49A01F801E20FF31F10826096E6E078
:045354000C94B82CD1
:10535800AC01FA0190814F5F5F4F9032D1F3292F52
:10536800092E000C330B295031092530310588F3FB
:105378009B3209F540E050E0319602C040E050E031
:1053880080E090E06AE02191022E000C330B20535C
:1053980031092A30310548F4689FD001699FB00D62
:1053A8001124CD01821B930BEECF452B49F4919527
:1053B8008195910908959D3209F741E050E0DCCFCD
:0253C800089546
:1053CA00FC01408151818091EA4C9091EB4C892BF0
:1053DA0041F48091EE4C9091EF4C8093EA4C90937B
:1053EA00EB4C8091EC4C9091ED4C009719F48DB7F1
:1053FA009EB780972091EA4C3091EB4C28173907D9
:10540A0048F08CE090E0809300409093014080E067
:10541A0090E00895821B930B8417950790F3420F2F
:0E542A00531F4093EA4C5093EB4CC901089578
:10543800A7E0B0E0E2E2FAE20C94812C5C017A0188
:10544800C90127E0EFE4FCE4DE01119601900D921A
:105458002A95E1F7FB01C280D38084809580008182
:105468001181452B21F49E012F5F3F4F7901009751
:1054780019F4C7010E948F2DD7FC04C0C816D9069D
:1054880008F4C6019401AC01B701C5010E947D274B
:085498002796ECE00C94B22C05
:1054A0008F3F910541F03CF08FEF90E08093D64C18
:1054B0009093D74C089581302FEF92073CF48FEFF3
:1054C00090E08093D64C9093D74C08951816190607
:1054D0004CF48093D64C9093D74CE0E4FAE080A74C
:1054E00012A60895992364F491958195910980936A
:1054F000D64C9093D74CE0E4FAE010A682A708952A
:065500000E94BE2E08957A
:105506001F920F920FB60F9211240BB60F922F9384
:105516003F934F935F936F937F938F939F93AF9335
:10552600BF93EF93FF93E0E0F0E184818160848391
:10553600E091CE4CF091CF4C309709F00995FF9150
:10554600EF91BF91AF919F918F917F916F915F91F5
:105556004F913F912F910F900BBE0F900FBE0F9062
:045566001F901895E5
:10556A001F921FB61F9211248F938BB78F939F930D
:10557A00AF93BF93EF93FF938091724C9091734CCA
:10558A00A091744CB091754C0196A11DB11D8093E8
:10559A00724C9093734CA093744CB093754CE0E0AA
:1055AA00FAE08DE580A381E08387FF91EF91BF91B7
:1055BA00AF919F918F918BBF8F911F901FBE1F90AC
:0255CA00189532
:1055CC000E946B2B88F09F5798F0B92F9927B751F1
:1055DC00B0F0E1F0660F771F881F991F1AF0BA958B
:1055EC00C9F714C0B13091F00E94762EB1E0089545
:1055FC000C94762E672F782F8827B85F39F0B93F37
:10560C00CCF3869577956795B395D9F73EF490953D
:0E561C008095709561957F4F8F4F9F4F089539
:10562A00E0EAF4E021E0218322E022830E94FB28C1
:10563A0020E030E040E851E40E94E32E9B01AC01F7
:10564A0060E07BE187EB9EE40E94DF2E20E030E001
:10565A0040E05FE30E945B2E0E94E62AE0E4F8E065
:10566A006087718780E8858383E087838681806C81
:04567A008683089586
:10567E00990F0008550FAA0BE0E8FEEF1616170655
:10568E00E807F907C0F012161306E407F50798F0BD
:10569E00621B730B840B950B39F40A2661F0232BD6
:1056AE00242B252B21F408950A2609F4A140A69552
:0856BE008FEF811D811D08958D
:1056C60057FD9058440F551F59F05F3F71F04795AD
:1056D600880F97FB991F61F09F3F79F08795089592
:1056E600121613061406551FF2CF4695F1DF08C0B1
:1056F600161617061806991FF1CF869571056105CE
:045706000894089566
:10570A00A1E21A2EAA1BBB1BFD010DC0AA1FBB1FBB
:10571A00EE1FFF1FA217B307E407F50720F0A21B2D
:10572A00B30BE40BF50B661F771F881F991F1A949A
:10573A0069F760957095809590959B01AC01BD01C4
:04574A00CF010895EE
:10574E00CF93DF93EC0190E0E92FF0E0EE0FFF1F17
:10575E00E052F44B8081811102C081810EC0A8817C
:10576E00B9812C91821305C091811196A883B983BA
:10577E0001C09F5F9B3040F3892FDF91CF91089539
:10578E00FA0160387105CCF0623871051CF063388F
:10579E00710599F4A081B1819D012C5F3F4F20834B
:1057AE0031834D915D916D917C91FC0140835183CC
:1057BE006283738381E090E0089580E090E0089525
:1057CE00CF93DF93EC01AC0120E030E0E0E4F8E0B1
:1057DE0009C0948195FFFDCFDA018D91AD018283D1
:1057EE002F5F3F4FDE010D900020E9F71197AC1BA4
:0E57FE00BD0B2A173B0768F3DF91CF9108958A
:10580C0097FB10F8169400080F93083098F0085086
:10581C00232F342F452F562F672F782F892F902D1C
:10582C00F4CF0594979587957795679557954795F8
:0C583C00379527950A95AAF70F9108955B
:10584800A0E0B0E0EAE2FCE20C94852C6C01EB01EC
:105858008A017B01E40EF51ECE15DF0541F0899122
:10586800B601082E000C990B0E947128F5CFC801CB
:0A587800CDB7DEB7E8E00C94B62CC3
:10588200A0E0B0E0E7E4FCE20C94852C8C016B0113
:10589200EC017E01E01AF10A6991662341F0062EBD
:1058A200000C770BC6010E94D12D892B91F3C70101
:0A58B200CDB7DEB7E8E00C94B62C89
:1058BC00A0E0B0E0E4E6FCE20C94852C8C016B01DA
:1058CC00EC017E01E01AF10A6991662341F0062E83
:1058DC00000C770BC6010E94D12D892B91F7C701C3
:0A58EC00CDB7DEB7E8E00C94B62C4F
:1058F6002F923F924F925F926F927F928F929F92DA
:10590600AF92BF92CF92DF92EF92FF920F931F93C7
:10591600CF93DF93CDB7DEB7CA1BDB0BCDBFDEBFA0
:025926000994E2
:10592800A2E0B0E0EAE9FCE20C94892C8C014983FE
:105938005A83AE014F5F5F4F0E941E05F801208118
:1059480024FF02C08FEF9FEF2296E4E00C94BA2C5C
:105958002A88398848885F846E847D848C849B84F7
:10596800AA84B984C884DF80EE80FD800C811B8105
:10597800AA81B981CE0FD11DCDBFDEBFED0108953B
:10598800052E97FB1EF400940E94422E57FD07D067
:105998000E94852B07FC03D04EF40C94422E5095A0
:0E59A8004095309521953F4F4F4F5F4F08952A
:1059B6001F93CF93DF93EC01162F43E16DE980E04F
:1059C60090E10E949B2E188340E06DE980E090E113
:0C59D6000E949B2EDF91CF911F9108953D
:1059E2009C01205331092A30310558F080628156DA
:1059F200910931E020E0069708F030E0832F922FE2
:085A0200089581E090E0089591
:105A0A0097FB072E16F4009407D077FD09D00E9461
:105A1A00192D07FC05D03EF4909581959F4F089566
:085A2A00709561957F4F08950E
:105A3200AA1BBB1B51E107C0AA1FBB1FA617B707B2
:105A420010F0A61BB70B881F991F5A95A9F78095CE
:085A52009095BC01CD010895FF
